{
  "contractName": "EIP712Base",
  "abi": [
    {
      "inputs": [],
      "name": "domainSeparator",
      "outputs": [
        {
          "internalType": "bytes32",
          "name": "",
          "type": "bytes32"
        }
      ],
      "stateMutability": "view",
      "type": "function"
    },
    {
      "inputs": [],
      "name": "getChainId",
      "outputs": [
        {
          "internalType": "uint256",
          "name": "",
          "type": "uint256"
        }
      ],
      "stateMutability": "view",
      "type": "function"
    }
  ],
  "bytecode": "0x608060405234801561001057600080fd5b50610114806100206000396000f3fe6080604052348015600f57600080fd5b506004361060325760003560e01c80633408e470146037578063f698da25146051575b600080fd5b603d606b565b6040516048919060b1565b60405180910390f35b60576078565b604051606291906098565b60405180910390f35b6000804690508091505090565b60005481565b60858160ca565b82525050565b60928160d4565b82525050565b600060208201905060ab6000830184607e565b92915050565b600060208201905060c46000830184608b565b92915050565b6000819050919050565b600081905091905056fea2646970667358221220cafff79f547de301d7d64b988e6be1a1414a297695f6e430250b1fb901b1be2664736f6c63430008000033",
  "immutableReferences": {},
  "source": "// SPDX-License-Identifier: MIT\r\npragma solidity ^0.8.0;\r\n\r\n\r\ncontract EIP712Base {\r\n    struct EIP712Domain {\r\n        string name;\r\n        string version;\r\n        address verifyingContract;\r\n        bytes32 salt;\r\n    }\r\n\r\n    bytes32 internal constant EIP712_DOMAIN_TYPEHASH = keccak256(\r\n        bytes(\r\n            \"EIP712Domain(string name,string version,address verifyingContract,bytes32 salt)\"\r\n        )\r\n    );\r\n    bytes32 public domainSeparator;\r\n\r\n    // supposed to be called once while initializing.\r\n    // one of the contractsa that inherits this contract follows proxy pattern\r\n    // so it is not possible to do this in a constructor\r\n    function _initializeEIP712(\r\n        string memory name,\r\n        string memory version\r\n    )\r\n        internal\r\n    {\r\n        domainSeparator = keccak256(\r\n            abi.encode(\r\n                EIP712_DOMAIN_TYPEHASH,\r\n                keccak256(bytes(name)),\r\n                keccak256(bytes(version)),\r\n                address(this),\r\n                bytes32(getChainId())\r\n            )\r\n        );\r\n    }\r\n\r\n    function getChainId() public view returns (uint256) {\r\n        uint256 id;\r\n        assembly {\r\n            id := chainid()\r\n        }\r\n        return id;\r\n    }\r\n\r\n    /**\r\n     * Accept message hash and returns hash message in EIP712 compatible form\r\n     * So that it can be used to recover signer from signature signed using EIP712 formatted data\r\n     * https://eips.ethereum.org/EIPS/eip-712\r\n     * \"\\\\x19\" makes the encoding deterministic\r\n     * \"\\\\x01\" is the version byte to make it compatible to EIP-191\r\n     */\r\n    function toTypedMessageHash(bytes32 messageHash)\r\n        internal\r\n        view\r\n        returns (bytes32)\r\n    {\r\n        return\r\n            keccak256(\r\n                abi.encodePacked(\"\\x19\\x01\", domainSeparator, messageHash)\r\n            );\r\n    }\r\n}",
  "sourcePath": "D:/Blockchain Programming/Qrollectibles/frontend/packages/contracts/contracts/helpers/EIP712Base.sol",
  "compiler": {
    "name": "solc",
    "version": "0.8.0+commit.c7dfd78e.Emscripten.clang"
  },
  "schemaVersion": "3.4.1",
  "updatedAt": "2021-10-09T23:02:40.796Z",
  "devdoc": {
    "kind": "dev",
    "methods": {},
    "version": 1
  },
  "userdoc": {
    "kind": "user",
    "methods": {},
    "version": 1
  }
}