{
  "contractName": "NativeMetaTransaction",
  "abi": [
    {
      "anonymous": false,
      "inputs": [
        {
          "indexed": false,
          "internalType": "address",
          "name": "userAddress",
          "type": "address"
        },
        {
          "indexed": false,
          "internalType": "address",
          "name": "relayerAddress",
          "type": "address"
        },
        {
          "indexed": false,
          "internalType": "bytes",
          "name": "functionSignature",
          "type": "bytes"
        }
      ],
      "name": "MetaTransactionExecuted",
      "type": "event"
    },
    {
      "inputs": [],
      "name": "domainSeparator",
      "outputs": [
        {
          "internalType": "bytes32",
          "name": "",
          "type": "bytes32"
        }
      ],
      "stateMutability": "view",
      "type": "function"
    },
    {
      "inputs": [],
      "name": "getChainId",
      "outputs": [
        {
          "internalType": "uint256",
          "name": "",
          "type": "uint256"
        }
      ],
      "stateMutability": "view",
      "type": "function"
    },
    {
      "inputs": [
        {
          "internalType": "address",
          "name": "userAddress",
          "type": "address"
        },
        {
          "internalType": "bytes",
          "name": "functionSignature",
          "type": "bytes"
        },
        {
          "internalType": "bytes32",
          "name": "sigR",
          "type": "bytes32"
        },
        {
          "internalType": "bytes32",
          "name": "sigS",
          "type": "bytes32"
        },
        {
          "internalType": "uint8",
          "name": "sigV",
          "type": "uint8"
        }
      ],
      "name": "executeMetaTransaction",
      "outputs": [
        {
          "internalType": "bytes",
          "name": "",
          "type": "bytes"
        }
      ],
      "stateMutability": "payable",
      "type": "function"
    },
    {
      "inputs": [
        {
          "internalType": "address",
          "name": "user",
          "type": "address"
        }
      ],
      "name": "getNonce",
      "outputs": [
        {
          "internalType": "uint256",
          "name": "nonce",
          "type": "uint256"
        }
      ],
      "stateMutability": "view",
      "type": "function"
    }
  ],
  "bytecode": "0x608060405234801561001057600080fd5b50610ddd806100206000396000f3fe60806040526004361061003f5760003560e01c80630c53c51c146100445780632d0335ab146100745780633408e470146100b1578063f698da25146100dc575b600080fd5b61005e60048036038101906100599190610641565b610107565b60405161006b9190610a49565b60405180910390f35b34801561008057600080fd5b5061009b60048036038101906100969190610618565b610371565b6040516100a89190610acb565b60405180910390f35b3480156100bd57600080fd5b506100c66103ba565b6040516100d39190610acb565b60405180910390f35b3480156100e857600080fd5b506100f16103c7565b6040516100fe91906109a4565b60405180910390f35b606060006040518060600160405280600160008a73ffffffffffffffffffffffffffffffffffffffff1673ffffffffffffffffffffffffffffffffffffffff1681526020019081526020016000205481526020018873ffffffffffffffffffffffffffffffffffffffff16815260200187815250905061018a87828787876103cd565b6101c9576040517f08c379a00000000000000000000000000000000000000000000000000000000081526004016101c090610a6b565b60405180910390fd5b60018060008973ffffffffffffffffffffffffffffffffffffffff1673ffffffffffffffffffffffffffffffffffffffff168152602001908152602001600020546102149190610b8a565b600160008973ffffffffffffffffffffffffffffffffffffffff1673ffffffffffffffffffffffffffffffffffffffff168152602001908152602001600020819055507f5845892132946850460bff5a0083f71031bc5bf9aadcd40f1de79423eac9b10b87338860405161028a93929190610966565b60405180910390a16000803073ffffffffffffffffffffffffffffffffffffffff16888a6040516020016102bf929190610907565b6040516020818303038152906040526040516102db91906108f0565b6000604051808303816000865af19150503d8060008114610318576040519150601f19603f3d011682016040523d82523d6000602084013e61031d565b606091505b509150915081610362576040517f08c379a000000000000000000000000000000000000000000000000000000000815260040161035990610a8b565b60405180910390fd5b80935050505095945050505050565b6000600160008373ffffffffffffffffffffffffffffffffffffffff1673ffffffffffffffffffffffffffffffffffffffff168152602001908152602001600020549050919050565b6000804690508091505090565b60005481565b60008073ffffffffffffffffffffffffffffffffffffffff168673ffffffffffffffffffffffffffffffffffffffff16141561043e576040517f08c379a000000000000000000000000000000000000000000000000000000000815260040161043590610aab565b60405180910390fd5b600161045161044c876104d6565b61053e565b838686604051600081526020016040526040516104719493929190610a04565b6020604051602081039080840390855afa158015610493573d6000803e3d6000fd5b5050506020604051035173ffffffffffffffffffffffffffffffffffffffff168673ffffffffffffffffffffffffffffffffffffffff1614905095945050505050565b6000604051806080016040528060438152602001610d6560439139805190602001208260000151836020015184604001518051906020012060405160200161052194939291906109bf565b604051602081830303815290604052805190602001209050919050565b600080548260405160200161055492919061092f565b604051602081830303815290604052805190602001209050919050565b600061058461057f84610b17565b610ae6565b90508281526020810184848401111561059c57600080fd5b6105a7848285610c33565b509392505050565b6000813590506105be81610d1f565b92915050565b6000813590506105d381610d36565b92915050565b600082601f8301126105ea57600080fd5b81356105fa848260208601610571565b91505092915050565b60008135905061061281610d4d565b92915050565b60006020828403121561062a57600080fd5b6000610638848285016105af565b91505092915050565b600080600080600060a0868803121561065957600080fd5b6000610667888289016105af565b955050602086013567ffffffffffffffff81111561068457600080fd5b610690888289016105d9565b94505060406106a1888289016105c4565b93505060606106b2888289016105c4565b92505060806106c388828901610603565b9150509295509295909350565b6106d981610be0565b82525050565b6106f06106eb82610be0565b610c75565b82525050565b6106ff81610bf2565b82525050565b61071661071182610bf2565b610c87565b82525050565b600061072782610b47565b6107318185610b52565b9350610741818560208601610c42565b61074a81610d01565b840191505092915050565b600061076082610b47565b61076a8185610b63565b935061077a818560208601610c42565b80840191505092915050565b6000610793600283610b7f565b91507f19010000000000000000000000000000000000000000000000000000000000006000830152600282019050919050565b60006107d3603d83610b6e565b91507f4e4d5423657865637574654d6574615472616e73616374696f6e3a205349474e60008301527f45525f414e445f5349474e41545552455f444f5f4e4f545f4d415443480000006020830152604082019050919050565b6000610839602783610b6e565b91507f4e4d5423657865637574654d6574615472616e73616374696f6e3a2043414c4c60008301527f5f4641494c4544000000000000000000000000000000000000000000000000006020830152604082019050919050565b600061089f601a83610b6e565b91507f4e4d54237665726966793a20494e56414c49445f5349474e45520000000000006000830152602082019050919050565b6108db81610c1c565b82525050565b6108ea81610c26565b82525050565b60006108fc8284610755565b915081905092915050565b60006109138285610755565b915061091f82846106df565b6014820191508190509392505050565b600061093a82610786565b91506109468285610705565b6020820191506109568284610705565b6020820191508190509392505050565b600060608201905061097b60008301866106d0565b61098860208301856106d0565b818103604083015261099a818461071c565b9050949350505050565b60006020820190506109b960008301846106f6565b92915050565b60006080820190506109d460008301876106f6565b6109e160208301866108d2565b6109ee60408301856106d0565b6109fb60608301846106f6565b95945050505050565b6000608082019050610a1960008301876106f6565b610a2660208301866108e1565b610a3360408301856106f6565b610a4060608301846106f6565b95945050505050565b60006020820190508181036000830152610a63818461071c565b905092915050565b60006020820190508181036000830152610a84816107c6565b9050919050565b60006020820190508181036000830152610aa48161082c565b9050919050565b60006020820190508181036000830152610ac481610892565b9050919050565b6000602082019050610ae060008301846108d2565b92915050565b6000604051905081810181811067ffffffffffffffff82111715610b0d57610b0c610cd2565b5b8060405250919050565b600067ffffffffffffffff821115610b3257610b31610cd2565b5b601f19601f8301169050602081019050919050565b600081519050919050565b600082825260208201905092915050565b600081905092915050565b600082825260208201905092915050565b600081905092915050565b6000610b9582610c1c565b9150610ba083610c1c565b9250827fffffffffffffffffffffffffffffffffffffffffffffffffffffffffffffffff03821115610bd557610bd4610ca3565b5b828201905092915050565b6000610beb82610bfc565b9050919050565b6000819050919050565b600073ffffffffffffffffffffffffffffffffffffffff82169050919050565b6000819050919050565b600060ff82169050919050565b82818337600083830152505050565b60005b83811015610c60578082015181840152602081019050610c45565b83811115610c6f576000848401525b50505050565b6000610c8082610c91565b9050919050565b6000819050919050565b6000610c9c82610d12565b9050919050565b7f4e487b7100000000000000000000000000000000000000000000000000000000600052601160045260246000fd5b7f4e487b7100000000000000000000000000000000000000000000000000000000600052604160045260246000fd5b6000601f19601f8301169050919050565b60008160601b9050919050565b610d2881610be0565b8114610d3357600080fd5b50565b610d3f81610bf2565b8114610d4a57600080fd5b50565b610d5681610c26565b8114610d6157600080fd5b5056fe4d6574615472616e73616374696f6e2875696e74323536206e6f6e63652c616464726573732066726f6d2c62797465732066756e6374696f6e5369676e617475726529a26469706673582212202d462847c21d6ee51fdcc1de79212685fa8cf6d874f9f52aeedd06b681b5caaa64736f6c63430008000033",
  "immutableReferences": {},
  "source": "// SPDX-License-Identifier: MIT\r\npragma solidity ^0.8.0;\r\n\r\n\r\nimport { EIP712Base } from \"./EIP712Base.sol\";\r\n\r\ncontract NativeMetaTransaction is EIP712Base {\r\n    bytes32 private constant META_TRANSACTION_TYPEHASH = keccak256(\r\n        bytes(\r\n            \"MetaTransaction(uint256 nonce,address from,bytes functionSignature)\"\r\n        )\r\n    );\r\n    event MetaTransactionExecuted(\r\n        address userAddress,\r\n        address relayerAddress,\r\n        bytes functionSignature\r\n    );\r\n    mapping(address => uint256) nonces;\r\n\r\n    /*\r\n     * Meta transaction structure.\r\n     * No point of including value field here as if user is doing value transfer then he has the funds to pay for gas\r\n     * He should call the desired function directly in that case.\r\n     */\r\n    struct MetaTransaction {\r\n        uint256 nonce;\r\n        address from;\r\n        bytes functionSignature;\r\n    }\r\n\r\n    function executeMetaTransaction(\r\n        address userAddress,\r\n        bytes memory functionSignature,\r\n        bytes32 sigR,\r\n        bytes32 sigS,\r\n        uint8 sigV\r\n    ) public payable returns (bytes memory) {\r\n        MetaTransaction memory metaTx = MetaTransaction({\r\n            nonce: nonces[userAddress],\r\n            from: userAddress,\r\n            functionSignature: functionSignature\r\n        });\r\n\r\n        require(\r\n            verify(userAddress, metaTx, sigR, sigS, sigV),\r\n            \"NMT#executeMetaTransaction: SIGNER_AND_SIGNATURE_DO_NOT_MATCH\"\r\n        );\r\n\r\n        // increase nonce for user (to avoid re-use)\r\n        nonces[userAddress] = nonces[userAddress] + 1;\r\n\r\n        emit MetaTransactionExecuted(\r\n            userAddress,\r\n            msg.sender,\r\n            functionSignature\r\n        );\r\n\r\n        // Append userAddress and relayer address at the end to extract it from calling context\r\n        (bool success, bytes memory returnData) = address(this).call(\r\n            abi.encodePacked(functionSignature, userAddress)\r\n        );\r\n        require(success, \"NMT#executeMetaTransaction: CALL_FAILED\");\r\n\r\n        return returnData;\r\n    }\r\n\r\n    function hashMetaTransaction(MetaTransaction memory metaTx)\r\n        internal\r\n        pure\r\n        returns (bytes32)\r\n    {\r\n        return\r\n            keccak256(\r\n                abi.encode(\r\n                    META_TRANSACTION_TYPEHASH,\r\n                    metaTx.nonce,\r\n                    metaTx.from,\r\n                    keccak256(metaTx.functionSignature)\r\n                )\r\n            );\r\n    }\r\n\r\n    function getNonce(address user) public view returns (uint256 nonce) {\r\n        nonce = nonces[user];\r\n    }\r\n\r\n    function verify(\r\n        address signer,\r\n        MetaTransaction memory metaTx,\r\n        bytes32 sigR,\r\n        bytes32 sigS,\r\n        uint8 sigV\r\n    ) internal view returns (bool) {\r\n        require(signer != address(0), \"NMT#verify: INVALID_SIGNER\");\r\n        return\r\n            signer ==\r\n            ecrecover(\r\n                toTypedMessageHash(hashMetaTransaction(metaTx)),\r\n                sigV,\r\n                sigR,\r\n                sigS\r\n            );\r\n    }\r\n}",
  "sourcePath": "D:/Blockchain Programming/Qrollectibles/frontend/packages/contracts/contracts/helpers/NativeMetaTransaction.sol",
  "compiler": {
    "name": "solc",
    "version": "0.8.0+commit.c7dfd78e.Emscripten.clang"
  },
  "schemaVersion": "3.4.1",
  "updatedAt": "2021-10-09T16:37:04.122Z",
  "devdoc": {
    "kind": "dev",
    "methods": {},
    "version": 1
  },
  "userdoc": {
    "kind": "user",
    "methods": {},
    "version": 1
  }
}