{
  "contractName": "QrollectibleStorage",
  "abi": [
    {
      "anonymous": false,
      "inputs": [
        {
          "indexed": false,
          "internalType": "bytes32",
          "name": "id",
          "type": "bytes32"
        },
        {
          "indexed": true,
          "internalType": "uint256",
          "name": "assetId",
          "type": "uint256"
        },
        {
          "indexed": true,
          "internalType": "address",
          "name": "seller",
          "type": "address"
        },
        {
          "indexed": false,
          "internalType": "address",
          "name": "tokenAddress",
          "type": "address"
        }
      ],
      "name": "OrderCancelled",
      "type": "event"
    },
    {
      "anonymous": false,
      "inputs": [
        {
          "indexed": false,
          "internalType": "bytes32",
          "name": "id",
          "type": "bytes32"
        },
        {
          "indexed": true,
          "internalType": "uint256",
          "name": "assetId",
          "type": "uint256"
        },
        {
          "indexed": true,
          "internalType": "address",
          "name": "seller",
          "type": "address"
        },
        {
          "indexed": false,
          "internalType": "address",
          "name": "tokenAddress",
          "type": "address"
        },
        {
          "indexed": false,
          "internalType": "uint256",
          "name": "price",
          "type": "uint256"
        }
      ],
      "name": "OrderCreated",
      "type": "event"
    },
    {
      "anonymous": false,
      "inputs": [
        {
          "indexed": false,
          "internalType": "bytes32",
          "name": "id",
          "type": "bytes32"
        },
        {
          "indexed": true,
          "internalType": "uint256",
          "name": "assetId",
          "type": "uint256"
        },
        {
          "indexed": true,
          "internalType": "address",
          "name": "seller",
          "type": "address"
        },
        {
          "indexed": false,
          "internalType": "address",
          "name": "tokenAddress",
          "type": "address"
        },
        {
          "indexed": false,
          "internalType": "uint256",
          "name": "totalPrice",
          "type": "uint256"
        },
        {
          "indexed": true,
          "internalType": "address",
          "name": "buyer",
          "type": "address"
        }
      ],
      "name": "OrderSuccessful",
      "type": "event"
    },
    {
      "inputs": [],
      "name": "ERC721_Interface",
      "outputs": [
        {
          "internalType": "bytes4",
          "name": "",
          "type": "bytes4"
        }
      ],
      "stateMutability": "view",
      "type": "function"
    },
    {
      "inputs": [],
      "name": "InterfaceId_ValidateFingerprint",
      "outputs": [
        {
          "internalType": "bytes4",
          "name": "",
          "type": "bytes4"
        }
      ],
      "stateMutability": "view",
      "type": "function"
    },
    {
      "inputs": [],
      "name": "acceptedToken",
      "outputs": [
        {
          "internalType": "contract ERC20Interface",
          "name": "",
          "type": "address"
        }
      ],
      "stateMutability": "view",
      "type": "function"
    },
    {
      "inputs": [
        {
          "internalType": "address",
          "name": "",
          "type": "address"
        },
        {
          "internalType": "uint256",
          "name": "",
          "type": "uint256"
        }
      ],
      "name": "orderByAssetId",
      "outputs": [
        {
          "internalType": "bytes32",
          "name": "id",
          "type": "bytes32"
        },
        {
          "internalType": "address",
          "name": "seller",
          "type": "address"
        },
        {
          "internalType": "address",
          "name": "tokenAddress",
          "type": "address"
        },
        {
          "internalType": "uint256",
          "name": "price",
          "type": "uint256"
        }
      ],
      "stateMutability": "view",
      "type": "function"
    }
  ],
  "bytecode": "0x608060405234801561001057600080fd5b506103d4806100206000396000f3fe608060405234801561001057600080fd5b506004361061004c5760003560e01c80632b4c32be1461005157806337f82f371461006f578063451c3d801461008d578063e61f3851146100ab575b600080fd5b6100596100de565b60405161006691906102a4565b60405180910390f35b6100776100e9565b60405161008491906102a4565b60405180910390f35b61009561010d565b6040516100a291906102bf565b60405180910390f35b6100c560048036038101906100c091906101d8565b610131565b6040516100d5949392919061025f565b60405180910390f35b6380ac58cd60e01b81565b7f8f9f4b63fb27ea36c52c6e650320201c8f2c6d7c1dfa95f40f5d5da52392016881565b60008054906101000a900473ffffffffffffffffffffffffffffffffffffffff1681565b6001602052816000526040600020602052806000526040600020600091509150508060000154908060010160009054906101000a900473ffffffffffffffffffffffffffffffffffffffff16908060020160009054906101000a900473ffffffffffffffffffffffffffffffffffffffff16908060030154905084565b6000813590506101bd81610370565b92915050565b6000813590506101d281610387565b92915050565b600080604083850312156101eb57600080fd5b60006101f9858286016101ae565b925050602061020a858286016101c3565b9150509250929050565b61021d816102da565b82525050565b61022c816102ec565b82525050565b61023b816102f6565b82525050565b61024a8161034c565b82525050565b61025981610342565b82525050565b60006080820190506102746000830187610223565b6102816020830186610214565b61028e6040830185610214565b61029b6060830184610250565b95945050505050565b60006020820190506102b96000830184610232565b92915050565b60006020820190506102d46000830184610241565b92915050565b60006102e582610322565b9050919050565b6000819050919050565b60007fffffffff0000000000000000000000000000000000000000000000000000000082169050919050565b600073ffffffffffffffffffffffffffffffffffffffff82169050919050565b6000819050919050565b60006103578261035e565b9050919050565b600061036982610322565b9050919050565b610379816102da565b811461038457600080fd5b50565b61039081610342565b811461039b57600080fd5b5056fea264697066735822122087bc2686d5029d82e579a04c812ae888385f6f8638354f412e0e37c40b6dbef564736f6c63430008000033",
  "immutableReferences": {},
  "source": "// SPDX-License-Identifier: MIT\r\npragma solidity ^0.8.0;\r\n\r\n\r\n/**\r\n * @title Interface for contracts conforming to ERC-20\r\n */\r\ninterface ERC20Interface {\r\n  function transferFrom(address from, address to, uint tokens) external returns (bool success);\r\n}\r\n\r\n\r\n/**\r\n * @title Interface for contracts conforming to ERC-721\r\n */\r\ninterface ERC721Interface {\r\n  function ownerOf(uint256 _tokenId) external view returns (address _owner);\r\n  function approve(address _to, uint256 _tokenId) external;\r\n  function getApproved(uint256 _tokenId) external view returns (address);\r\n  function isApprovedForAll(address _owner, address _operator) external view returns (bool);\r\n  function safeTransferFrom(address _from, address _to, uint256 _tokenId) external;\r\n  function supportsInterface(bytes4) external view returns (bool);\r\n}\r\n\r\n\r\ninterface ERC721Verifiable is ERC721Interface \r\n{\r\n  function verifyFingerprint(uint256, bytes memory) external view returns (bool);\r\n}\r\n\r\n\r\ncontract QrollectibleStorage \r\n{\r\n  ERC20Interface public acceptedToken;\r\n\r\n  struct Order \r\n  {\r\n    // Order ID\r\n    bytes32 id;\r\n    // Owner of the NFT\r\n    address seller;\r\n    // NFT registry address\r\n    address tokenAddress;\r\n    // Price (in wei) for the published item\r\n    uint256 price;\r\n  }\r\n\r\n  // From ERC721 registry assetId to Order (to avoid asset collision)\r\n  mapping (address => mapping(uint256 => Order)) public orderByAssetId;\r\n\r\n  bytes4 public constant InterfaceId_ValidateFingerprint = bytes4(keccak256(\"verifyFingerprint(uint256,bytes)\"));\r\n\r\n  bytes4 public constant ERC721_Interface = bytes4(0x80ac58cd);\r\n\r\n  // EVENTS\r\n  event OrderCreated(\r\n    bytes32 id,\r\n    uint256 indexed assetId,\r\n    address indexed seller,\r\n    address tokenAddress,\r\n    uint256 price\r\n  );\r\n\r\n  event OrderSuccessful(\r\n    bytes32 id,\r\n    uint256 indexed assetId,\r\n    address indexed seller,\r\n    address tokenAddress,\r\n    uint256 totalPrice,\r\n    address indexed buyer\r\n  );\r\n\r\n  event OrderCancelled(\r\n    bytes32 id,\r\n    uint256 indexed assetId,\r\n    address indexed seller,\r\n    address tokenAddress\r\n  );\r\n\r\n  \r\n}",
  "sourcePath": "D:\\Blockchain Programming\\Qrollectibles\\frontend\\packages\\contracts\\contracts\\QrollectibleStorage.sol",
  "compiler": {
    "name": "solc",
    "version": "0.8.0+commit.c7dfd78e.Emscripten.clang"
  },
  "schemaVersion": "3.4.1",
  "updatedAt": "2021-10-10T07:44:51.312Z",
  "devdoc": {
    "kind": "dev",
    "methods": {},
    "version": 1
  },
  "userdoc": {
    "kind": "user",
    "methods": {},
    "version": 1
  }
}