{
  "contractName": "TaroNFTMarketplace",
  "abi": [
    {
      "inputs": [
        {
          "internalType": "address",
          "name": "_acceptedToken",
          "type": "address"
        },
        {
          "internalType": "address",
          "name": "_owner",
          "type": "address"
        }
      ],
      "stateMutability": "nonpayable",
      "type": "constructor"
    },
    {
      "anonymous": false,
      "inputs": [
        {
          "indexed": false,
          "internalType": "address",
          "name": "userAddress",
          "type": "address"
        },
        {
          "indexed": false,
          "internalType": "address",
          "name": "relayerAddress",
          "type": "address"
        },
        {
          "indexed": false,
          "internalType": "bytes",
          "name": "functionSignature",
          "type": "bytes"
        }
      ],
      "name": "MetaTransactionExecuted",
      "type": "event"
    },
    {
      "anonymous": false,
      "inputs": [
        {
          "indexed": false,
          "internalType": "bytes32",
          "name": "id",
          "type": "bytes32"
        },
        {
          "indexed": true,
          "internalType": "uint256",
          "name": "assetId",
          "type": "uint256"
        },
        {
          "indexed": true,
          "internalType": "address",
          "name": "seller",
          "type": "address"
        },
        {
          "indexed": false,
          "internalType": "address",
          "name": "tokenAddress",
          "type": "address"
        }
      ],
      "name": "OrderCancelled",
      "type": "event"
    },
    {
      "anonymous": false,
      "inputs": [
        {
          "indexed": false,
          "internalType": "bytes32",
          "name": "id",
          "type": "bytes32"
        },
        {
          "indexed": true,
          "internalType": "uint256",
          "name": "assetId",
          "type": "uint256"
        },
        {
          "indexed": true,
          "internalType": "address",
          "name": "seller",
          "type": "address"
        },
        {
          "indexed": false,
          "internalType": "address",
          "name": "tokenAddress",
          "type": "address"
        },
        {
          "indexed": false,
          "internalType": "uint256",
          "name": "price",
          "type": "uint256"
        }
      ],
      "name": "OrderCreated",
      "type": "event"
    },
    {
      "anonymous": false,
      "inputs": [
        {
          "indexed": false,
          "internalType": "bytes32",
          "name": "id",
          "type": "bytes32"
        },
        {
          "indexed": true,
          "internalType": "uint256",
          "name": "assetId",
          "type": "uint256"
        },
        {
          "indexed": true,
          "internalType": "address",
          "name": "seller",
          "type": "address"
        },
        {
          "indexed": false,
          "internalType": "address",
          "name": "tokenAddress",
          "type": "address"
        },
        {
          "indexed": false,
          "internalType": "uint256",
          "name": "totalPrice",
          "type": "uint256"
        },
        {
          "indexed": true,
          "internalType": "address",
          "name": "buyer",
          "type": "address"
        }
      ],
      "name": "OrderSuccessful",
      "type": "event"
    },
    {
      "anonymous": false,
      "inputs": [
        {
          "indexed": true,
          "internalType": "address",
          "name": "previousOwner",
          "type": "address"
        },
        {
          "indexed": true,
          "internalType": "address",
          "name": "newOwner",
          "type": "address"
        }
      ],
      "name": "OwnershipTransferred",
      "type": "event"
    },
    {
      "anonymous": false,
      "inputs": [
        {
          "indexed": false,
          "internalType": "address",
          "name": "account",
          "type": "address"
        }
      ],
      "name": "Paused",
      "type": "event"
    },
    {
      "anonymous": false,
      "inputs": [
        {
          "indexed": false,
          "internalType": "address",
          "name": "account",
          "type": "address"
        }
      ],
      "name": "Unpaused",
      "type": "event"
    },
    {
      "inputs": [],
      "name": "ERC721_Interface",
      "outputs": [
        {
          "internalType": "bytes4",
          "name": "",
          "type": "bytes4"
        }
      ],
      "stateMutability": "view",
      "type": "function"
    },
    {
      "inputs": [],
      "name": "InterfaceId_ValidateFingerprint",
      "outputs": [
        {
          "internalType": "bytes4",
          "name": "",
          "type": "bytes4"
        }
      ],
      "stateMutability": "view",
      "type": "function"
    },
    {
      "inputs": [],
      "name": "acceptedToken",
      "outputs": [
        {
          "internalType": "contract ERC20Interface",
          "name": "",
          "type": "address"
        }
      ],
      "stateMutability": "view",
      "type": "function"
    },
    {
      "inputs": [],
      "name": "domainSeparator",
      "outputs": [
        {
          "internalType": "bytes32",
          "name": "",
          "type": "bytes32"
        }
      ],
      "stateMutability": "view",
      "type": "function"
    },
    {
      "inputs": [
        {
          "internalType": "address",
          "name": "userAddress",
          "type": "address"
        },
        {
          "internalType": "bytes",
          "name": "functionSignature",
          "type": "bytes"
        },
        {
          "internalType": "bytes32",
          "name": "sigR",
          "type": "bytes32"
        },
        {
          "internalType": "bytes32",
          "name": "sigS",
          "type": "bytes32"
        },
        {
          "internalType": "uint8",
          "name": "sigV",
          "type": "uint8"
        }
      ],
      "name": "executeMetaTransaction",
      "outputs": [
        {
          "internalType": "bytes",
          "name": "",
          "type": "bytes"
        }
      ],
      "stateMutability": "payable",
      "type": "function"
    },
    {
      "inputs": [],
      "name": "getChainId",
      "outputs": [
        {
          "internalType": "uint256",
          "name": "",
          "type": "uint256"
        }
      ],
      "stateMutability": "view",
      "type": "function"
    },
    {
      "inputs": [
        {
          "internalType": "address",
          "name": "user",
          "type": "address"
        }
      ],
      "name": "getNonce",
      "outputs": [
        {
          "internalType": "uint256",
          "name": "nonce",
          "type": "uint256"
        }
      ],
      "stateMutability": "view",
      "type": "function"
    },
    {
      "inputs": [
        {
          "internalType": "address",
          "name": "",
          "type": "address"
        },
        {
          "internalType": "uint256",
          "name": "",
          "type": "uint256"
        }
      ],
      "name": "orderByAssetId",
      "outputs": [
        {
          "internalType": "bytes32",
          "name": "id",
          "type": "bytes32"
        },
        {
          "internalType": "address",
          "name": "seller",
          "type": "address"
        },
        {
          "internalType": "address",
          "name": "tokenAddress",
          "type": "address"
        },
        {
          "internalType": "uint256",
          "name": "price",
          "type": "uint256"
        }
      ],
      "stateMutability": "view",
      "type": "function"
    },
    {
      "inputs": [],
      "name": "owner",
      "outputs": [
        {
          "internalType": "address",
          "name": "",
          "type": "address"
        }
      ],
      "stateMutability": "view",
      "type": "function"
    },
    {
      "inputs": [],
      "name": "paused",
      "outputs": [
        {
          "internalType": "bool",
          "name": "",
          "type": "bool"
        }
      ],
      "stateMutability": "view",
      "type": "function"
    },
    {
      "inputs": [],
      "name": "renounceOwnership",
      "outputs": [],
      "stateMutability": "nonpayable",
      "type": "function"
    },
    {
      "inputs": [
        {
          "internalType": "address",
          "name": "newOwner",
          "type": "address"
        }
      ],
      "name": "transferOwnership",
      "outputs": [],
      "stateMutability": "nonpayable",
      "type": "function"
    },
    {
      "inputs": [
        {
          "internalType": "address",
          "name": "tokenAddress",
          "type": "address"
        },
        {
          "internalType": "uint256",
          "name": "tokenId",
          "type": "uint256"
        },
        {
          "internalType": "uint256",
          "name": "askingPrice",
          "type": "uint256"
        }
      ],
      "name": "createOrder",
      "outputs": [],
      "stateMutability": "nonpayable",
      "type": "function"
    },
    {
      "inputs": [
        {
          "internalType": "address",
          "name": "tokenAddress",
          "type": "address"
        },
        {
          "internalType": "uint256",
          "name": "tokenId",
          "type": "uint256"
        }
      ],
      "name": "cancelOrder",
      "outputs": [],
      "stateMutability": "nonpayable",
      "type": "function"
    },
    {
      "inputs": [
        {
          "internalType": "address",
          "name": "tokenAddress",
          "type": "address"
        },
        {
          "internalType": "uint256",
          "name": "tokenId",
          "type": "uint256"
        },
        {
          "internalType": "uint256",
          "name": "price",
          "type": "uint256"
        },
        {
          "internalType": "bytes",
          "name": "fingerprint",
          "type": "bytes"
        }
      ],
      "name": "safeExecuteOrder",
      "outputs": [],
      "stateMutability": "nonpayable",
      "type": "function"
    },
    {
      "inputs": [
        {
          "internalType": "address",
          "name": "tokenAddress",
          "type": "address"
        },
        {
          "internalType": "uint256",
          "name": "tokenId",
          "type": "uint256"
        },
        {
          "internalType": "uint256",
          "name": "price",
          "type": "uint256"
        }
      ],
      "name": "executeOrder",
      "outputs": [],
      "stateMutability": "nonpayable",
      "type": "function"
    }
  ],
  "bytecode": "0x60806040523480156200001157600080fd5b5060405162003c8b38038062003c8b833981810160405281019062000037919062000605565b600062000049620002b860201b60201c565b9050806000806101000a81548173ffffffffffffffffffffffffffffffffffffffff021916908373ffffffffffffffffffffffffffffffffffffffff1602179055508073ffffffffffffffffffffffffffffffffffffffff16600073ffffffffffffffffffffffffffffffffffffffff167f8be0079c531659141344cd1fd0a4f28419497f9722a3daafe3b4186f6b6457e060405160405180910390a35060008060146101000a81548160ff0219169083151502179055506200017d6040518060400160405280601d81526020017f51726f6c6c65637469626c6573204e4654204d61726b6574706c6163650000008152506040518060400160405280600181526020017f31000000000000000000000000000000000000000000000000000000000000008152506200036b60201b60201c565b600073ffffffffffffffffffffffffffffffffffffffff168173ffffffffffffffffffffffffffffffffffffffff161415620001f0576040517f08c379a0000000000000000000000000000000000000000000000000000000008152600401620001e79062000819565b60405180910390fd5b6200020181620003e660201b60201c565b6200022d8273ffffffffffffffffffffffffffffffffffffffff16620005a560201b62000be41760201c565b6200026f576040517f08c379a000000000000000000000000000000000000000000000000000000000815260040162000266906200083b565b60405180910390fd5b81600160006101000a81548173ffffffffffffffffffffffffffffffffffffffff021916908373ffffffffffffffffffffffffffffffffffffffff16021790555050506200090a565b60003073ffffffffffffffffffffffffffffffffffffffff163373ffffffffffffffffffffffffffffffffffffffff1614156200036457600080368080601f016020809104026020016040519081016040528093929190818152602001838380828437600081840152601f19601f820116905080830192505050505050509050600080369050905073ffffffffffffffffffffffffffffffffffffffff81830151169250505062000368565b3390505b90565b6040518060800160405280604f815260200162003c3c604f9139805190602001208280519060200120828051906020012030620003ad620005b860201b60201c565b60001b604051602001620003c6959493929190620007bc565b604051602081830303815290604052805190602001206003819055505050565b620003f6620002b860201b60201c565b73ffffffffffffffffffffffffffffffffffffffff166200041c620005c560201b60201c565b73ffffffffffffffffffffffffffffffffffffffff161462000475576040517f08c379a00000000000000000000000000000000000000000000000000000000081526004016200046c906200087f565b60405180910390fd5b600073ffffffffffffffffffffffffffffffffffffffff168173ffffffffffffffffffffffffffffffffffffffff161415620004e8576040517f08c379a0000000000000000000000000000000000000000000000000000000008152600401620004df906200085d565b60405180910390fd5b8073ffffffffffffffffffffffffffffffffffffffff1660008054906101000a900473ffffffffffffffffffffffffffffffffffffffff1673ffffffffffffffffffffffffffffffffffffffff167f8be0079c531659141344cd1fd0a4f28419497f9722a3daafe3b4186f6b6457e060405160405180910390a3806000806101000a81548173ffffffffffffffffffffffffffffffffffffffff021916908373ffffffffffffffffffffffffffffffffffffffff16021790555050565b600080823b905060008111915050919050565b6000804690508091505090565b60008060009054906101000a900473ffffffffffffffffffffffffffffffffffffffff16905090565b600081519050620005ff81620008f0565b92915050565b600080604083850312156200061957600080fd5b60006200062985828601620005ee565b92505060206200063c85828601620005ee565b9150509250929050565b6200065181620008b2565b82525050565b6200066281620008c6565b82525050565b600062000677600d83620008a1565b91507f496e76616c6964206f776e6572000000000000000000000000000000000000006000830152602082019050919050565b6000620006b9603683620008a1565b91507f54686520616363657074656420746f6b656e2061646472657373206d7573742060008301527f62652061206465706c6f79656420636f6e7472616374000000000000000000006020830152604082019050919050565b600062000721602683620008a1565b91507f4f776e61626c653a206e6577206f776e657220697320746865207a65726f206160008301527f64647265737300000000000000000000000000000000000000000000000000006020830152604082019050919050565b600062000789602083620008a1565b91507f4f776e61626c653a2063616c6c6572206973206e6f7420746865206f776e65726000830152602082019050919050565b600060a082019050620007d3600083018862000657565b620007e2602083018762000657565b620007f1604083018662000657565b62000800606083018562000646565b6200080f608083018462000657565b9695505050505050565b60006020820190508181036000830152620008348162000668565b9050919050565b600060208201905081810360008301526200085681620006aa565b9050919050565b60006020820190508181036000830152620008788162000712565b9050919050565b600060208201905081810360008301526200089a816200077a565b9050919050565b600082825260208201905092915050565b6000620008bf82620008d0565b9050919050565b6000819050919050565b600073ffffffffffffffffffffffffffffffffffffffff82169050919050565b620008fb81620008b2565b81146200090757600080fd5b50565b613322806200091a6000396000f3fe6080604052600436106100f35760003560e01c8063715018a61161008a578063ae7b033311610059578063ae7b0333146102f9578063e61f385114610322578063f2fde38b14610362578063f698da251461038b576100f3565b8063715018a6146102655780638da5cb5b1461027c5780639b214f77146102a7578063acfee8ed146102d0576100f3565b806337f82f37116100c657806337f82f37146101bb578063451c3d80146101e65780635c975abb146102115780636a2061371461023c576100f3565b80630c53c51c146100f85780632b4c32be146101285780632d0335ab146101535780633408e47014610190575b600080fd5b610112600480360381019061010d91906120d5565b6103b6565b60405161011f9190612ccf565b60405180910390f35b34801561013457600080fd5b5061013d610621565b60405161014a9190612cb4565b60405180910390f35b34801561015f57600080fd5b5061017a60048036038101906101759190612083565b61062c565b6040516101879190612f4c565b60405180910390f35b34801561019c57600080fd5b506101a5610675565b6040516101b29190612f4c565b60405180910390f35b3480156101c757600080fd5b506101d0610682565b6040516101dd9190612cb4565b60405180910390f35b3480156101f257600080fd5b506101fb6106a6565b6040516102089190612cf1565b60405180910390f35b34801561021d57600080fd5b506102266106cc565b6040516102339190612b4f565b60405180910390f35b34801561024857600080fd5b50610263600480360381019061025e9190612164565b6106e2565b005b34801561027157600080fd5b5061027a610739565b005b34801561028857600080fd5b50610291610873565b60405161029e9190612a96565b60405180910390f35b3480156102b357600080fd5b506102ce60048036038101906102c991906121ef565b61089c565b005b3480156102dc57600080fd5b506102f760048036038101906102f291906121a0565b6108f7565b005b34801561030557600080fd5b50610320600480360381019061031b91906121a0565b61094f565b005b34801561032e57600080fd5b5061034960048036038101906103449190612164565b6109b8565b6040516103599493929190612bae565b60405180910390f35b34801561036e57600080fd5b5061038960048036038101906103849190612083565b610a35565b005b34801561039757600080fd5b506103a0610bde565b6040516103ad9190612b6a565b60405180910390f35b606060006040518060600160405280600460008a73ffffffffffffffffffffffffffffffffffffffff1673ffffffffffffffffffffffffffffffffffffffff1681526020019081526020016000205481526020018873ffffffffffffffffffffffffffffffffffffffff1681526020018781525090506104398782878787610bf7565b610478576040517f08c379a000000000000000000000000000000000000000000000000000000000815260040161046f90612d8c565b60405180910390fd5b6001600460008973ffffffffffffffffffffffffffffffffffffffff1673ffffffffffffffffffffffffffffffffffffffff168152602001908152602001600020546104c4919061303b565b600460008973ffffffffffffffffffffffffffffffffffffffff1673ffffffffffffffffffffffffffffffffffffffff168152602001908152602001600020819055507f5845892132946850460bff5a0083f71031bc5bf9aadcd40f1de79423eac9b10b87338860405161053a93929190612ada565b60405180910390a16000803073ffffffffffffffffffffffffffffffffffffffff16888a60405160200161056f9291906129d8565b60405160208183030381529060405260405161058b91906129c1565b6000604051808303816000865af19150503d80600081146105c8576040519150601f19603f3d011682016040523d82523d6000602084013e6105cd565b606091505b509150915081610612576040517f08c379a000000000000000000000000000000000000000000000000000000000815260040161060990612e2c565b60405180910390fd5b80935050505095945050505050565b6380ac58cd60e01b81565b6000600460008373ffffffffffffffffffffffffffffffffffffffff1673ffffffffffffffffffffffffffffffffffffffff168152602001908152602001600020549050919050565b6000804690508091505090565b7f8f9f4b63fb27ea36c52c6e650320201c8f2c6d7c1dfa95f40f5d5da52392016881565b600160009054906101000a900473ffffffffffffffffffffffffffffffffffffffff1681565b60008060149054906101000a900460ff16905090565b6106ea6106cc565b1561072a576040517f08c379a000000000000000000000000000000000000000000000000000000000815260040161072190612dcc565b60405180910390fd5b6107348282610d00565b505050565b610741611057565b73ffffffffffffffffffffffffffffffffffffffff1661075f610873565b73ffffffffffffffffffffffffffffffffffffffff16146107b5576040517f08c379a00000000000000000000000000000000000000000000000000000000081526004016107ac90612e4c565b60405180910390fd5b600073ffffffffffffffffffffffffffffffffffffffff1660008054906101000a900473ffffffffffffffffffffffffffffffffffffffff1673ffffffffffffffffffffffffffffffffffffffff167f8be0079c531659141344cd1fd0a4f28419497f9722a3daafe3b4186f6b6457e060405160405180910390a360008060006101000a81548173ffffffffffffffffffffffffffffffffffffffff021916908373ffffffffffffffffffffffffffffffffffffffff160217905550565b60008060009054906101000a900473ffffffffffffffffffffffffffffffffffffffff16905090565b6108a46106cc565b156108e4576040517f08c379a00000000000000000000000000000000000000000000000000000000081526004016108db90612dcc565b60405180910390fd5b6108f084848484611108565b5050505050565b6108ff6106cc565b1561093f576040517f08c379a000000000000000000000000000000000000000000000000000000000815260040161093690612dcc565b60405180910390fd5b61094a8383836118c3565b505050565b6109576106cc565b15610997576040517f08c379a000000000000000000000000000000000000000000000000000000000815260040161098e90612dcc565b60405180910390fd5b6109b283838360405180602001604052806000815250611108565b50505050565b6002602052816000526040600020602052806000526040600020600091509150508060000154908060010160009054906101000a900473ffffffffffffffffffffffffffffffffffffffff16908060020160009054906101000a900473ffffffffffffffffffffffffffffffffffffffff16908060030154905084565b610a3d611057565b73ffffffffffffffffffffffffffffffffffffffff16610a5b610873565b73ffffffffffffffffffffffffffffffffffffffff1614610ab1576040517f08c379a0000000000000000000000000000000000000000000000000000000008152600401610aa890612e4c565b60405180910390fd5b600073ffffffffffffffffffffffffffffffffffffffff168173ffffffffffffffffffffffffffffffffffffffff161415610b21576040517f08c379a0000000000000000000000000000000000000000000000000000000008152600401610b1890612d2c565b60405180910390fd5b8073ffffffffffffffffffffffffffffffffffffffff1660008054906101000a900473ffffffffffffffffffffffffffffffffffffffff1673ffffffffffffffffffffffffffffffffffffffff167f8be0079c531659141344cd1fd0a4f28419497f9722a3daafe3b4186f6b6457e060405160405180910390a3806000806101000a81548173ffffffffffffffffffffffffffffffffffffffff021916908373ffffffffffffffffffffffffffffffffffffffff16021790555050565b60035481565b600080823b905060008111915050919050565b60008073ffffffffffffffffffffffffffffffffffffffff168673ffffffffffffffffffffffffffffffffffffffff161415610c68576040517f08c379a0000000000000000000000000000000000000000000000000000000008152600401610c5f90612eac565b60405180910390fd5b6001610c7b610c7687611d74565b611ddc565b83868660405160008152602001604052604051610c9b9493929190612c6f565b6020604051602081039080840390855afa158015610cbd573d6000803e3d6000fd5b5050506020604051035173ffffffffffffffffffffffffffffffffffffffff168673ffffffffffffffffffffffffffffffffffffffff1614905095945050505050565b610d08611f46565b6000610d12611057565b90506000600260008673ffffffffffffffffffffffffffffffffffffffff1673ffffffffffffffffffffffffffffffffffffffff1681526020019081526020016000206000858152602001908152602001600020604051806080016040529081600082015481526020016001820160009054906101000a900473ffffffffffffffffffffffffffffffffffffffff1673ffffffffffffffffffffffffffffffffffffffff1673ffffffffffffffffffffffffffffffffffffffff1681526020016002820160009054906101000a900473ffffffffffffffffffffffffffffffffffffffff1673ffffffffffffffffffffffffffffffffffffffff1673ffffffffffffffffffffffffffffffffffffffff16815260200160038201548152505090506000801b81600001511415610e7d576040517f08c379a0000000000000000000000000000000000000000000000000000000008152600401610e7490612e6c565b60405180910390fd5b8173ffffffffffffffffffffffffffffffffffffffff16816020015173ffffffffffffffffffffffffffffffffffffffff161480610eed5750610ebe610873565b73ffffffffffffffffffffffffffffffffffffffff168273ffffffffffffffffffffffffffffffffffffffff16145b610f2c576040517f08c379a0000000000000000000000000000000000000000000000000000000008152600401610f2390612d4c565b60405180910390fd5b600081600001519050600082602001519050600083604001519050600260008973ffffffffffffffffffffffffffffffffffffffff1673ffffffffffffffffffffffffffffffffffffffff16815260200190815260200160002060008881526020019081526020016000206000808201600090556001820160006101000a81549073ffffffffffffffffffffffffffffffffffffffff02191690556002820160006101000a81549073ffffffffffffffffffffffffffffffffffffffff0219169055600382016000905550508173ffffffffffffffffffffffffffffffffffffffff16877f0325426328de5b91ae4ad8462ad4076de4bcaf4551e81556185cacde5a425c6b8584604051611041929190612b85565b60405180910390a3839550505050505092915050565b60003073ffffffffffffffffffffffffffffffffffffffff163373ffffffffffffffffffffffffffffffffffffffff16141561110157600080368080601f016020809104026020016040519081016040528093929190818152602001838380828437600081840152601f19601f820116905080830192505050505050509050600080369050905073ffffffffffffffffffffffffffffffffffffffff818301511692505050611105565b3390505b90565b611110611f46565b61111985611e10565b6000611123611057565b905060008690508073ffffffffffffffffffffffffffffffffffffffff166301ffc9a77f8f9f4b63fb27ea36c52c6e650320201c8f2c6d7c1dfa95f40f5d5da5239201686040518263ffffffff1660e01b81526004016111839190612cb4565b60206040518083038186803b15801561119b57600080fd5b505afa1580156111af573d6000803e3d6000fd5b505050506040513d601f19601f820116820180604052508101906111d3919061226a565b156112a3578073ffffffffffffffffffffffffffffffffffffffff16638f9f4b6387866040518363ffffffff1660e01b8152600401611213929190612f67565b60206040518083038186803b15801561122b57600080fd5b505afa15801561123f573d6000803e3d6000fd5b505050506040513d601f19601f82011682018060405250810190611263919061226a565b6112a2576040517f08c379a000000000000000000000000000000000000000000000000000000000815260040161129990612e0c565b60405180910390fd5b5b6000600260008973ffffffffffffffffffffffffffffffffffffffff1673ffffffffffffffffffffffffffffffffffffffff1681526020019081526020016000206000888152602001908152602001600020604051806080016040529081600082015481526020016001820160009054906101000a900473ffffffffffffffffffffffffffffffffffffffff1673ffffffffffffffffffffffffffffffffffffffff1673ffffffffffffffffffffffffffffffffffffffff1681526020016002820160009054906101000a900473ffffffffffffffffffffffffffffffffffffffff1673ffffffffffffffffffffffffffffffffffffffff1673ffffffffffffffffffffffffffffffffffffffff16815260200160038201548152505090506000801b8160000151141561140c576040517f08c379a000000000000000000000000000000000000000000000000000000000815260040161140390612e6c565b60405180910390fd5b600081602001519050600073ffffffffffffffffffffffffffffffffffffffff168173ffffffffffffffffffffffffffffffffffffffff161415611485576040517f08c379a000000000000000000000000000000000000000000000000000000000815260040161147c90612d0c565b60405180910390fd5b8373ffffffffffffffffffffffffffffffffffffffff168173ffffffffffffffffffffffffffffffffffffffff1614156114f4576040517f08c379a00000000000000000000000000000000000000000000000000000000081526004016114eb90612d4c565b60405180910390fd5b8682606001511461153a576040517f08c379a000000000000000000000000000000000000000000000000000000000815260040161153190612eec565b60405180910390fd5b8273ffffffffffffffffffffffffffffffffffffffff16636352211e896040518263ffffffff1660e01b81526004016115739190612f4c565b60206040518083038186803b15801561158b57600080fd5b505afa15801561159f573d6000803e3d6000fd5b505050506040513d601f19601f820116820180604052508101906115c391906120ac565b73ffffffffffffffffffffffffffffffffffffffff168173ffffffffffffffffffffffffffffffffffffffff1614611630576040517f08c379a000000000000000000000000000000000000000000000000000000000815260040161162790612f2c565b60405180910390fd5b600082600001519050600260008b73ffffffffffffffffffffffffffffffffffffffff1673ffffffffffffffffffffffffffffffffffffffff16815260200190815260200160002060008a81526020019081526020016000206000808201600090556001820160006101000a81549073ffffffffffffffffffffffffffffffffffffffff02191690556002820160006101000a81549073ffffffffffffffffffffffffffffffffffffffff021916905560038201600090555050600160009054906101000a900473ffffffffffffffffffffffffffffffffffffffff1673ffffffffffffffffffffffffffffffffffffffff166323b872dd86848b6040518463ffffffff1660e01b815260040161174993929190612b18565b602060405180830381600087803b15801561176357600080fd5b505af1158015611777573d6000803e3d6000fd5b505050506040513d601f19601f8201168201806040525081019061179b919061226a565b6117da576040517f08c379a00000000000000000000000000000000000000000000000000000000081526004016117d190612ecc565b60405180910390fd5b8373ffffffffffffffffffffffffffffffffffffffff166342842e0e83878c6040518463ffffffff1660e01b815260040161181793929190612b18565b600060405180830381600087803b15801561183157600080fd5b505af1158015611845573d6000803e3d6000fd5b505050508473ffffffffffffffffffffffffffffffffffffffff168273ffffffffffffffffffffffffffffffffffffffff168a7f695ec315e8a642a74d450a4505eeea53df699b47a7378c7d752e97d5b16eb9bb848e8d6040516118ab93929190612bf3565b60405180910390a48295505050505050949350505050565b6118cc83611e10565b60006118d6611057565b9050600084905060008173ffffffffffffffffffffffffffffffffffffffff16636352211e866040518263ffffffff1660e01b81526004016119189190612f4c565b60206040518083038186803b15801561193057600080fd5b505afa158015611944573d6000803e3d6000fd5b505050506040513d601f19601f8201168201806040525081019061196891906120ac565b90508073ffffffffffffffffffffffffffffffffffffffff168373ffffffffffffffffffffffffffffffffffffffff16146119d8576040517f08c379a00000000000000000000000000000000000000000000000000000000081526004016119cf90612dac565b60405180910390fd5b3073ffffffffffffffffffffffffffffffffffffffff168273ffffffffffffffffffffffffffffffffffffffff1663081812fc876040518263ffffffff1660e01b8152600401611a289190612f4c565b60206040518083038186803b158015611a4057600080fd5b505afa158015611a54573d6000803e3d6000fd5b505050506040513d601f19601f82011682018060405250810190611a7891906120ac565b73ffffffffffffffffffffffffffffffffffffffff161480611b2157508173ffffffffffffffffffffffffffffffffffffffff1663e985e9c582306040518363ffffffff1660e01b8152600401611ad0929190612ab1565b60206040518083038186803b158015611ae857600080fd5b505afa158015611afc573d6000803e3d6000fd5b505050506040513d601f19601f82011682018060405250810190611b20919061226a565b5b611b60576040517f08c379a0000000000000000000000000000000000000000000000000000000008152600401611b5790612dec565b60405180910390fd5b60008411611ba3576040517f08c379a0000000000000000000000000000000000000000000000000000000008152600401611b9a90612f0c565b60405180910390fd5b60004282878988604051602001611bbe959493929190612a37565b60405160208183030381529060405280519060200120905060405180608001604052808281526020018373ffffffffffffffffffffffffffffffffffffffff1681526020018873ffffffffffffffffffffffffffffffffffffffff16815260200186815250600260008973ffffffffffffffffffffffffffffffffffffffff1673ffffffffffffffffffffffffffffffffffffffff16815260200190815260200160002060008881526020019081526020016000206000820151816000015560208201518160010160006101000a81548173ffffffffffffffffffffffffffffffffffffffff021916908373ffffffffffffffffffffffffffffffffffffffff16021790555060408201518160020160006101000a81548173ffffffffffffffffffffffffffffffffffffffff021916908373ffffffffffffffffffffffffffffffffffffffff160217905550606082015181600301559050508173ffffffffffffffffffffffffffffffffffffffff16867f30d4639aaeab3d855645143b89e73f02a888a38520e63402edcaf9b27cabc93b838a89604051611d6393929190612bf3565b60405180910390a350505050505050565b60006040518060800160405280604381526020016132aa604391398051906020012082600001518360200151846040015180519060200120604051602001611dbf9493929190612c2a565b604051602081830303815290604052805190602001209050919050565b600060035482604051602001611df3929190612a00565b604051602081830303815290604052805190602001209050919050565b611e2f8173ffffffffffffffffffffffffffffffffffffffff16610be4565b611e6e576040517f08c379a0000000000000000000000000000000000000000000000000000000008152600401611e6590612e8c565b60405180910390fd5b60008190508073ffffffffffffffffffffffffffffffffffffffff166301ffc9a76380ac58cd60e01b6040518263ffffffff1660e01b8152600401611eb39190612cb4565b60206040518083038186803b158015611ecb57600080fd5b505afa158015611edf573d6000803e3d6000fd5b505050506040513d601f19601f82011682018060405250810190611f03919061226a565b611f42576040517f08c379a0000000000000000000000000000000000000000000000000000000008152600401611f3990612d6c565b60405180910390fd5b5050565b604051806080016040528060008019168152602001600073ffffffffffffffffffffffffffffffffffffffff168152602001600073ffffffffffffffffffffffffffffffffffffffff168152602001600081525090565b6000611fb0611fab84612fc8565b612f97565b905082815260208101848484011115611fc857600080fd5b611fd3848285613140565b509392505050565b600081359050611fea81613236565b92915050565b600081519050611fff81613236565b92915050565b6000815190506120148161324d565b92915050565b60008135905061202981613264565b92915050565b600082601f83011261204057600080fd5b8135612050848260208601611f9d565b91505092915050565b6000813590506120688161327b565b92915050565b60008135905061207d81613292565b92915050565b60006020828403121561209557600080fd5b60006120a384828501611fdb565b91505092915050565b6000602082840312156120be57600080fd5b60006120cc84828501611ff0565b91505092915050565b600080600080600060a086880312156120ed57600080fd5b60006120fb88828901611fdb565b955050602086013567ffffffffffffffff81111561211857600080fd5b6121248882890161202f565b94505060406121358882890161201a565b93505060606121468882890161201a565b92505060806121578882890161206e565b9150509295509295909350565b6000806040838503121561217757600080fd5b600061218585828601611fdb565b925050602061219685828601612059565b9150509250929050565b6000806000606084860312156121b557600080fd5b60006121c386828701611fdb565b93505060206121d486828701612059565b92505060406121e586828701612059565b9150509250925092565b6000806000806080858703121561220557600080fd5b600061221387828801611fdb565b945050602061222487828801612059565b935050604061223587828801612059565b925050606085013567ffffffffffffffff81111561225257600080fd5b61225e8782880161202f565b91505092959194509250565b60006020828403121561227c57600080fd5b600061228a84828501612005565b91505092915050565b61229c81613091565b82525050565b6122b36122ae82613091565b613182565b82525050565b6122c2816130a3565b82525050565b6122d1816130af565b82525050565b6122e86122e3826130af565b613194565b82525050565b6122f7816130b9565b82525050565b600061230882612ff8565b6123128185613003565b935061232281856020860161314f565b61232b81613218565b840191505092915050565b600061234182612ff8565b61234b8185613014565b935061235b81856020860161314f565b80840191505092915050565b6123708161311c565b82525050565b6000612383600f8361301f565b91507f496e76616c6964206164647265737300000000000000000000000000000000006000830152602082019050919050565b60006123c360268361301f565b91507f4f776e61626c653a206e6577206f776e657220697320746865207a65726f206160008301527f64647265737300000000000000000000000000000000000000000000000000006020830152604082019050919050565b600061242960118361301f565b91507f556e617574686f72697a656420757365720000000000000000000000000000006000830152602082019050919050565b6000612469600283613030565b91507f19010000000000000000000000000000000000000000000000000000000000006000830152600282019050919050565b60006124a960358361301f565b91507f546865204e465420636f6e74726163742068617320616e20696e76616c69642060008301527f45524337323120696d706c656d656e746174696f6e00000000000000000000006020830152604082019050919050565b600061250f603d8361301f565b91507f4e4d5423657865637574654d6574615472616e73616374696f6e3a205349474e60008301527f45525f414e445f5349474e41545552455f444f5f4e4f545f4d415443480000006020830152604082019050919050565b600061257560208361301f565b91507f4f6e6c7920746865206f776e65722063616e20637265617465206f72646572736000830152602082019050919050565b60006125b560108361301f565b91507f5061757361626c653a20706175736564000000000000000000000000000000006000830152602082019050919050565b60006125f560328361301f565b91507f54686520636f6e7472616374206973206e6f7420617574686f72697a6564207460008301527f6f206d616e6167652074686520617373657400000000000000000000000000006020830152604082019050919050565b600061265b60228361301f565b91507f5468652061737365742066696e6765727072696e74206973206e6f742076616c60008301527f69640000000000000000000000000000000000000000000000000000000000006020830152604082019050919050565b60006126c160278361301f565b91507f4e4d5423657865637574654d6574615472616e73616374696f6e3a2043414c4c60008301527f5f4641494c4544000000000000000000000000000000000000000000000000006020830152604082019050919050565b600061272760208361301f565b91507f4f776e61626c653a2063616c6c6572206973206e6f7420746865206f776e65726000830152602082019050919050565b600061276760138361301f565b91507f4173736574206e6f74207075626c6973686564000000000000000000000000006000830152602082019050919050565b60006127a760248361301f565b91507f546865204e465420416464726573732073686f756c64206265206120636f6e7460008301527f72616374000000000000000000000000000000000000000000000000000000006020830152604082019050919050565b600061280d601a8361301f565b91507f4e4d54237665726966793a20494e56414c49445f5349474e45520000000000006000830152602082019050919050565b600061284d60308361301f565b91507f5472616e73666572696e67207468652073616c6520616d6f756e7420746f207460008301527f68652073656c6c6572206661696c6564000000000000000000000000000000006020830152604082019050919050565b60006128b360188361301f565b91507f546865207072696365206973206e6f7420636f727265637400000000000000006000830152602082019050919050565b60006128f3601d8361301f565b91507f50726963652073686f756c6420626520626967676572207468616e20300000006000830152602082019050919050565b600061293360218361301f565b91507f5468652073656c6c6572206973206e6f206c6f6e67657220746865206f776e6560008301527f72000000000000000000000000000000000000000000000000000000000000006020830152604082019050919050565b61299581613105565b82525050565b6129ac6129a782613105565b6131b0565b82525050565b6129bb8161310f565b82525050565b60006129cd8284612336565b915081905092915050565b60006129e48285612336565b91506129f082846122a2565b6014820191508190509392505050565b6000612a0b8261245c565b9150612a1782856122d7565b602082019150612a2782846122d7565b6020820191508190509392505050565b6000612a43828861299b565b602082019150612a5382876122a2565b601482019150612a63828661299b565b602082019150612a7382856122a2565b601482019150612a83828461299b565b6020820191508190509695505050505050565b6000602082019050612aab6000830184612293565b92915050565b6000604082019050612ac66000830185612293565b612ad36020830184612293565b9392505050565b6000606082019050612aef6000830186612293565b612afc6020830185612293565b8181036040830152612b0e81846122fd565b9050949350505050565b6000606082019050612b2d6000830186612293565b612b3a6020830185612293565b612b47604083018461298c565b949350505050565b6000602082019050612b6460008301846122b9565b92915050565b6000602082019050612b7f60008301846122c8565b92915050565b6000604082019050612b9a60008301856122c8565b612ba76020830184612293565b9392505050565b6000608082019050612bc360008301876122c8565b612bd06020830186612293565b612bdd6040830185612293565b612bea606083018461298c565b95945050505050565b6000606082019050612c0860008301866122c8565b612c156020830185612293565b612c22604083018461298c565b949350505050565b6000608082019050612c3f60008301876122c8565b612c4c602083018661298c565b612c596040830185612293565b612c6660608301846122c8565b95945050505050565b6000608082019050612c8460008301876122c8565b612c9160208301866129b2565b612c9e60408301856122c8565b612cab60608301846122c8565b95945050505050565b6000602082019050612cc960008301846122ee565b92915050565b60006020820190508181036000830152612ce981846122fd565b905092915050565b6000602082019050612d066000830184612367565b92915050565b60006020820190508181036000830152612d2581612376565b9050919050565b60006020820190508181036000830152612d45816123b6565b9050919050565b60006020820190508181036000830152612d658161241c565b9050919050565b60006020820190508181036000830152612d858161249c565b9050919050565b60006020820190508181036000830152612da581612502565b9050919050565b60006020820190508181036000830152612dc581612568565b9050919050565b60006020820190508181036000830152612de5816125a8565b9050919050565b60006020820190508181036000830152612e05816125e8565b9050919050565b60006020820190508181036000830152612e258161264e565b9050919050565b60006020820190508181036000830152612e45816126b4565b9050919050565b60006020820190508181036000830152612e658161271a565b9050919050565b60006020820190508181036000830152612e858161275a565b9050919050565b60006020820190508181036000830152612ea58161279a565b9050919050565b60006020820190508181036000830152612ec581612800565b9050919050565b60006020820190508181036000830152612ee581612840565b9050919050565b60006020820190508181036000830152612f05816128a6565b9050919050565b60006020820190508181036000830152612f25816128e6565b9050919050565b60006020820190508181036000830152612f4581612926565b9050919050565b6000602082019050612f61600083018461298c565b92915050565b6000604082019050612f7c600083018561298c565b8181036020830152612f8e81846122fd565b90509392505050565b6000604051905081810181811067ffffffffffffffff82111715612fbe57612fbd6131e9565b5b8060405250919050565b600067ffffffffffffffff821115612fe357612fe26131e9565b5b601f19601f8301169050602081019050919050565b600081519050919050565b600082825260208201905092915050565b600081905092915050565b600082825260208201905092915050565b600081905092915050565b600061304682613105565b915061305183613105565b9250827fffffffffffffffffffffffffffffffffffffffffffffffffffffffffffffffff03821115613086576130856131ba565b5b828201905092915050565b600061309c826130e5565b9050919050565b60008115159050919050565b6000819050919050565b60007fffffffff0000000000000000000000000000000000000000000000000000000082169050919050565b600073ffffffffffffffffffffffffffffffffffffffff82169050919050565b6000819050919050565b600060ff82169050919050565b60006131278261312e565b9050919050565b6000613139826130e5565b9050919050565b82818337600083830152505050565b60005b8381101561316d578082015181840152602081019050613152565b8381111561317c576000848401525b50505050565b600061318d8261319e565b9050919050565b6000819050919050565b60006131a982613229565b9050919050565b6000819050919050565b7f4e487b7100000000000000000000000000000000000000000000000000000000600052601160045260246000fd5b7f4e487b7100000000000000000000000000000000000000000000000000000000600052604160045260246000fd5b6000601f19601f8301169050919050565b60008160601b9050919050565b61323f81613091565b811461324a57600080fd5b50565b613256816130a3565b811461326157600080fd5b50565b61326d816130af565b811461327857600080fd5b50565b61328481613105565b811461328f57600080fd5b50565b61329b8161310f565b81146132a657600080fd5b5056fe4d6574615472616e73616374696f6e2875696e74323536206e6f6e63652c616464726573732066726f6d2c62797465732066756e6374696f6e5369676e617475726529a2646970667358221220558459fa68455461855de2a03743c092b557d32222e8f4acbabe8d45442db42d64736f6c63430008000033454950373132446f6d61696e28737472696e67206e616d652c737472696e672076657273696f6e2c6164647265737320766572696679696e67436f6e74726163742c627974657333322073616c7429",
  "immutableReferences": {},
  "source": "// SPDX-License-Identifier: MIT\r\npragma solidity ^0.8.0;\r\n\r\nimport \"@openzeppelin/contracts/utils/math/SafeMath.sol\";\r\nimport \"@openzeppelin/contracts/utils/Address.sol\";\r\nimport \"@openzeppelin/contracts/token/ERC721/IERC721.sol\";\r\n\r\nimport \"./QrollectibleStorage.sol\";\r\nimport \"./helpers/Ownable.sol\";\r\nimport \"./helpers/Pausable.sol\";\r\nimport \"./helpers/ContextMixin.sol\";\r\nimport \"./helpers/NativeMetaTransaction.sol\";\r\n\r\n\r\ncontract TaroNFTMarketplace is Ownable, Pausable, QrollectibleStorage, NativeMetaTransaction \r\n{\r\n  using SafeMath for uint256;\r\n  using Address for address;\r\n\r\n    /**\r\n    * @dev Initialize this contract. Acts as a constructor\r\n    * @param _acceptedToken - Address of the ERC20 accepted for this marketplace\r\n    */\r\n\t  constructor (address _acceptedToken, address _owner)\r\n\t    public\r\n\t  {\r\n\t    // EIP712 init\r\n\t    _initializeEIP712('Qrollectibles NFT Marketplace', '1');\r\n\r\n\t    require(_owner != address(0), \"Invalid owner\");\r\n\t    transferOwnership(_owner);\r\n\r\n\t    require(_acceptedToken.isContract(), \"The accepted token address must be a deployed contract\");\r\n\t    acceptedToken = ERC20Interface(_acceptedToken);\r\n\t  }\r\n\r\n\t struct Item\r\n\t {\r\n        uint256 id;\r\n        address tokenAddress;\r\n        uint256 tokenId;\r\n        address payable seller;\r\n        uint256 askingPrice;\r\n   \t }\r\n\r\n   \t \r\n   \t function createOrder(address tokenAddress, uint256 tokenId, uint256 askingPrice) public whenNotPaused\r\n   \t {\r\n   \t \t_createOrder(tokenAddress, tokenId, askingPrice);\r\n   \t }\r\n\r\n   \t function cancelOrder(address tokenAddress, uint256 tokenId) public whenNotPaused \r\n   \t {\r\n    \t_cancelOrder(tokenAddress, tokenId);\r\n  \t }\r\n\r\n  \t function safeExecuteOrder(address tokenAddress, uint256 tokenId, uint256 price, bytes memory fingerprint) public whenNotPaused\r\n  \t {\r\n    \t_executeOrder(tokenAddress, tokenId, price, fingerprint);\r\n     }\r\n\r\n  \t function executeOrder(address tokenAddress, uint256 tokenId, uint256 price) public whenNotPaused\r\n  \t {\r\n    \t_executeOrder(tokenAddress, tokenId, price, \"\");\r\n     }\r\n\r\n\r\n    function _createOrder(address tokenAddress, uint256 tokenId, uint256 price) internal  \r\n    {\r\n    \t_requireERC721(tokenAddress);\r\n\r\n    \taddress sender = _msgSender();\r\n\r\n    \tERC721Interface nftRegistry = ERC721Interface(tokenAddress);\r\n    \taddress assetOwner = nftRegistry.ownerOf(tokenId);\r\n\r\n\t    require(sender == assetOwner, \"Only the owner can create orders\");\r\n\t    require\r\n\t    (\r\n\t      nftRegistry.getApproved(tokenId) == address(this) || nftRegistry.isApprovedForAll(assetOwner, address(this)),\r\n\t      \"The contract is not authorized to manage the asset\"\r\n\t    );\r\n\t    \r\n\t    require(price > 0, \"Price should be bigger than 0\");\r\n\r\n\t    bytes32 orderId = keccak256(\r\n\t      abi.encodePacked(\r\n\t        block.timestamp,\r\n\t        assetOwner,\r\n\t        tokenId,\r\n\t        tokenAddress,\r\n\t        price\r\n\t      )\r\n\t    );\r\n\r\n\t    orderByAssetId[tokenAddress][tokenId] = Order({\r\n\t      id: orderId,\r\n\t      seller: assetOwner,\r\n\t      tokenAddress: tokenAddress,\r\n\t      price: price\r\n\t    });\r\n\r\n\r\n\t    emit OrderCreated(orderId, tokenId, assetOwner, tokenAddress, price);\r\n\t  }\r\n\r\n\r\n\t  function _cancelOrder(address tokenAddress, uint256 tokenId) internal returns (Order memory) {\r\n    address sender = _msgSender();\r\n    Order memory order = orderByAssetId[tokenAddress][tokenId];\r\n\r\n    require(order.id != 0, \"Asset not published\");\r\n    require(order.seller == sender || sender == owner(), \"Unauthorized user\");\r\n\r\n    bytes32 orderId = order.id;\r\n    address orderSeller = order.seller;\r\n    address ordertokenAddress = order.tokenAddress;\r\n    delete orderByAssetId[tokenAddress][tokenId];\r\n\r\n    emit OrderCancelled(\r\n      orderId,\r\n      tokenId,\r\n      orderSeller,\r\n      ordertokenAddress\r\n    );\r\n\r\n    return order;\r\n  }\r\n\r\n   function _executeOrder(address tokenAddress, uint256 tokenId, uint256 price, bytes memory fingerprint) internal returns (Order memory)\r\n   {\r\n    _requireERC721(tokenAddress);\r\n\r\n    address sender = _msgSender();\r\n\r\n    ERC721Verifiable nftRegistry = ERC721Verifiable(tokenAddress);\r\n\r\n    if (nftRegistry.supportsInterface(InterfaceId_ValidateFingerprint)) {\r\n      require(\r\n        nftRegistry.verifyFingerprint(tokenId, fingerprint),\r\n        \"The asset fingerprint is not valid\"\r\n      );\r\n    }\r\n    Order memory order = orderByAssetId[tokenAddress][tokenId];\r\n\r\n    require(order.id != 0, \"Asset not published\");\r\n\r\n    address seller = order.seller;\r\n\r\n    require(seller != address(0), \"Invalid address\");\r\n    require(seller != sender, \"Unauthorized user\");\r\n    require(order.price == price, \"The price is not correct\");\r\n    require(seller == nftRegistry.ownerOf(tokenId), \"The seller is no longer the owner\");\r\n\r\n\r\n    bytes32 orderId = order.id;\r\n    delete orderByAssetId[tokenAddress][tokenId];\r\n\r\n \r\n    \r\n\r\n    // Transfer sale amount to seller\r\n    require(\r\n      acceptedToken.transferFrom(sender, seller, price),\r\n      \"Transfering the sale amount to the seller failed\"\r\n    );\r\n\r\n    // Transfer asset owner\r\n    nftRegistry.safeTransferFrom(\r\n      seller,\r\n      sender,\r\n      tokenId\r\n    );\r\n\r\n    emit OrderSuccessful(\r\n      orderId,\r\n      tokenId,\r\n      seller,\r\n      tokenAddress,\r\n      price,\r\n      sender\r\n    );\r\n\r\n    return order;\r\n  }\r\n\r\n\tfunction _requireERC721(address tokenAddress) internal view {\r\n    require(tokenAddress.isContract(), \"The NFT Address should be a contract\");\r\n\r\n    ERC721Interface nftRegistry = ERC721Interface(tokenAddress);\r\n    require(\r\n      nftRegistry.supportsInterface(ERC721_Interface),\r\n      \"The NFT contract has an invalid ERC721 implementation\"\r\n    );\r\n  }  \r\n\r\n}\t  \r\n\r\n\r\n\r\n",
  "sourcePath": "D:/Blockchain Programming/Qrollectibles/frontend/packages/contracts/contracts/TaroNFTMarketplace.sol",
  "compiler": {
    "name": "solc",
    "version": "0.8.0+commit.c7dfd78e.Emscripten.clang"
  },
  "schemaVersion": "3.4.1",
  "updatedAt": "2021-10-10T07:44:51.326Z",
  "devdoc": {
    "kind": "dev",
    "methods": {
      "constructor": {
        "details": "Initialize this contract. Acts as a constructor",
        "params": {
          "_acceptedToken": "- Address of the ERC20 accepted for this marketplace"
        }
      },
      "owner()": {
        "details": "Returns the address of the current owner."
      },
      "paused()": {
        "details": "Returns true if the contract is paused, and false otherwise."
      },
      "renounceOwnership()": {
        "details": "Leaves the contract without owner. It will not be possible to call `onlyOwner` functions anymore. Can only be called by the current owner. NOTE: Renouncing ownership will leave the contract without an owner, thereby removing any functionality that is only available to the owner."
      },
      "transferOwnership(address)": {
        "details": "Transfers ownership of the contract to a new account (`newOwner`). Can only be called by the current owner."
      }
    },
    "version": 1
  },
  "userdoc": {
    "kind": "user",
    "methods": {},
    "version": 1
  }
}